:100000000C942A000C94A20C0C9447000C9447000A
:100010000C9447000C9447000C9447000C94470044
:100020000C9447000C9447000C9447000C94470034
:100030000C9447000C9447000C9447000C94470024
:100040000C9447000C9447000C9447000C94470014
:100050000C94470011241FBECFE5D8E0DEBFCDBF12
:1000600010E0A0E6B0E0EAEBFDE102C005900D92E1
:10007000A838B107D9F710E0A8E8B0E001C01D9298
:10008000AC38B107E1F70E945A090C94DB0E0C94CE
:100090000000EF92FF920F931F937B018C0120E0F1
:1000A00030E040E05FE40E94F50388238CF0C80153
:1000B000B70120E030E040E05FE40E94C1010E940F
:1000C00055049B01AC01205030404040504806C0D0
:1000D000C801B7010E9455049B01AC01B901CA01D6
:1000E0001F910F91FF90EF900895A0E0B0E0EBE733
:1000F000F0E00C94730EDC012B01FA019C9192301C
:1001000008F439C1EB018881823008F433C194309E
:1001100069F4843009F02FC111969C91119789815F
:10012000981709F428C1A0E8B0E025C1843009F48B
:1001300021C18230A9F4923009F01DC19A01AD01AC
:1001400088E0EA010990AE01E90109929E0181501F
:10015000C1F7E201898111969C918923818308C1AD
:10016000923009F407C112962D903C901397EB0141
:100170008A819B811496AD90BD90CD90DC901797AD
:10018000EC80FD800E811F819101281B390BB90184
:1001900037FF04C066277727621B730B6032710537
:1001A0000CF061C0121613066CF537014801062EDB
:1001B00004C096948794779467940A94D2F721E0C8
:1001C00030E040E050E004C0220F331F441F551FB1
:1001D0006A95D2F721503040404050402E213F21B7
:1001E00040235123211531054105510521F021E01E
:1001F00030E040E050E079018A01E628F72808293C
:1002000019293CC0232BD1F1260E371E350146019A
:10021000062E04C096948794779467940A94D2F734
:1002200021E030E040E050E004C0220F331F441FC3
:10023000551F6A95D2F721503040404050402A2146
:100240003B214C215D21211531054105510521F04E
:1002500021E030E040E050E059016A01A628B728CB
:10026000C828D9280BC0821593052CF01C01AA249C
:10027000BB24650103C0EE24FF24870111969C91E5
:10028000D20111968C91981709F445C0992339F041
:10029000A80197012A193B094C095D0906C0A6016E
:1002A00095012E193F09400B510B57FD08C01182D3
:1002B0003382228224833583468357831DC081E0A5
:1002C00081833382228288279927DC01821B930B4A
:1002D000A40BB50B84839583A683B7830DC0220F2F
:1002E000331F441F551F24833583468357838281E0
:1002F000938101979383828324813581468157813D
:10030000DA01C9010197A109B1098F5F9F4FAF4F72
:10031000BF4328F30BC0918333822282EA0CFB1C7B
:100320000C1D1D1DE482F5820683178383E0808304
:10033000248135814681578157FF1AC0C901AA27F8
:1003400097FDA095BA2F81709070A070B0705695EF
:10035000479537952795822B932BA42BB52B848318
:100360009583A683B7838281938101969383828349
:10037000DF0101C0D201CD01CDB7DEB7E2E10C94BF
:100380008F0EA0E2B0E0E7ECF1E00C947F0E698301
:100390007A838B839C832D833E834F835887E9E048
:1003A000EE2EF12CEC0EFD1ECE010196B7010E943F
:1003B0007E058E010F5E1F4FCE010596B8010E948B
:1003C0007E058A8991E089278A8BC701B801AE0131
:1003D000475E5F4F0E9475000E94A904A096E6E068
:1003E0000C949B0EA0E2B0E0E8EFF1E00C947F0EDD
:1003F00069837A838B839C832D833E834F835887C5
:10040000F9E0EF2EF12CEC0EFD1ECE010196B701A6
:100410000E947E058E010F5E1F4FCE010596B8012A
:100420000E947E05C701B801AE01475E5F4F0E9482
:1004300075000E94A904A096E6E00C949B0EA0E231
:10044000B0E0E5E2F2E00C94730E69837A838B836B
:100450009C832D833E834F835887CE010196BE0136
:10046000675F7F4F0E947E05CE010596BE016F5EDD
:100470007F4F0E947E059985923088F0898982306D
:10048000C8F0943019F4823051F404C0843029F457
:10049000923081F480E890E0C6C0923049F420E0C8
:1004A0009A858A89981321E02A87CE010996BBC0D4
:1004B000823049F420E09A858A89981321E02A8BBA
:1004C000CE014196B0C02D843E844F8458886D88FB
:1004D0007E888F88988CEE24FF248701AA24BB2471
:1004E000650140E050E060E070E0E0E0F0E0C10174
:1004F00081709070892BE9F0E60CF71C081D191D1E
:100500009A01AB012A0D3B1D4C1D5D1D80E090E062
:10051000A0E0B0E0E614F7040805190520F481E036
:1005200090E0A0E0B0E0BA01A901480F591F6A1F8E
:100530007B1FAA0CBB1CCC1CDD1C97FE08C081E0F5
:1005400090E0A0E0B0E0A82AB92ACA2ADB2A3196B6
:10055000E032F10549F0660C771C881C991C569412
:10056000479437942794C3CFFA85EA892B893C892D
:100570008B859C85280F391F2E5F3F4F17C0CA01FE
:1005800081709070892B61F016950795F794E79428
:1005900080E090E0A0E0B0E8E82AF92A0A2B1B2BC3
:1005A00076956795579547952F5F3F4F77FDE7CF36
:1005B0000CC0440F551F661F771F17FD4160EE0CDE
:1005C000FF1C001F111F21503040403090E05907A0
:1005D00090E0690790E4790760F32B8F3C8FDB0193
:1005E000CA018F779070A070B07080349105A1051A
:1005F000B10561F447FD0AC0E114F10401051105DC
:1006000029F0405C5F4F6F4F7F4F40781A8EFE1786
:1006100011F081E08A8F4D8F5E8F6F8F78A383E01A
:10062000898FCE0149960E94A904A096E2E10C941C
:100630008F0EA8E1B0E0EFE1F3E00C947B0E69834C
:100640007A838B839C832D833E834F835887B9E0C5
:10065000EB2EF12CEC0EFD1ECE010196B7010E948F
:100660007E058E010F5E1F4FCE010596B8010E94D8
:100670007E052985223008F47EC03989323010F495
:10068000B8017CC08A859A8989278A87243011F02D
:10069000223031F4231709F06EC060E870E06EC0BC
:1006A000343039F41D861E861F86188A1C861B86E8
:1006B00004C0323021F484E08987B7015FC02B8504
:1006C0003C858B899C89281B390B3C872B87ED84C3
:1006D000FE840F851889AD88BE88CF88D88CEA142F
:1006E000FB040C051D0540F4EE0CFF1C001F111F40
:1006F000215030403C872B8720E030E040E050E044
:1007000080E090E0A0E0B0E460E070E0EA14FB0478
:100710000C051D0540F0282B392B4A2B5B2BEA18C2
:10072000FB080C091D09B695A79597958795EE0CC2
:10073000FF1C001F111F6F5F7F4F6F31710531F775
:10074000DA01C9018F779070A070B0708034910584
:10075000A105B10561F427FD0AC0E114F10401050A
:10076000110529F0205C3F4F4F4F5F4F20782D87B8
:100770003E874F87588BBE01675F7F4FCB010E943A
:10078000A9046896EAE00C94970EA8E1B0E0EBECBF
:10079000F3E00C947F0E69837A838B839C832D8393
:1007A0003E834F83588789E0E82EF12CEC0EFD1E26
:1007B000CE010196B7010E947E058E010F5E1F4F8C
:1007C000CE010596B8010E947E058985823040F0F1
:1007D0008989823028F0C701B8010E94F60501C05E
:1007E0008FEF6896E6E00C949B0EA8E1B0E0EBEF8B
:1007F000F3E00C947F0E69837A838B839C832D8333
:100800003E834F83588789E0E82EF12CEC0EFD1EC5
:10081000CE010196B7010E947E058E010F5E1F4F2B
:10082000CE010596B8010E947E058985823040F090
:100830008989823028F0C701B8010E94F60501C0FD
:100840008FEF6896E6E00C949B0EA8E1B0E0EBE237
:10085000F4E00C947F0E69837A838B839C832D83D1
:100860003E834F83588789E0E82EF12CEC0EFD1E65
:10087000CE010196B7010E947E058E010F5E1F4FCB
:10088000CE010596B8010E947E058985823040F030
:100890008989823028F0C701B8010E94F60501C09D
:1008A00081E06896E6E00C949B0EACE0B0E0EBE5EE
:1008B000F4E00C94830E69837A838B839C83CE014E
:1008C0000196BE016B5F7F4F0E947E058D81823055
:1008D00061F1823050F1843021F48E81882351F10E
:1008E0002EC02F81388537FD20C06E812F31310514
:1008F0001CF06623F9F023C08EE190E0821B930B7D
:1009000029853A854B855C8504C056954795379572
:1009100027958A95D2F76623B1F05095409530958A
:1009200021953F4F4F4F5F4F0EC020E030E040E039
:1009300050E009C02FEF3FEF4FEF5FE704C020E02A
:1009400030E040E050E8B901CA012C96E2E00C9496
:100950009F0EDF92EF92FF920F931F93FC01E480B2
:10096000F58006811781D1808081823048F480E053
:1009700090E0A0E1B0E0E82AF92A0A2B1B2BA5C0E1
:10098000843009F49FC0823021F4EE24FF248701D3
:1009900005C0E114F1040105110519F4E0E0F0E0EF
:1009A00096C0628173819FEF623879070CF05BC05B
:1009B00022E83FEF261B370B2A3131052CF020E0CF
:1009C00030E040E050E02AC0B801A701022E04C088
:1009D00076956795579547950A94D2F781E090E010
:1009E000A0E0B0E004C0880F991FAA1FBB1F2A9582
:1009F000D2F70197A109B1098E219F21A023B1232C
:100A00000097A105B10521F081E090E0A0E0B0E001
:100A10009A01AB01282B392B4A2B5B2BDA01C90138
:100A20008F779070A070B07080349105A105B105EA
:100A300039F427FF09C0205C3F4F4F4F5F4F04C080
:100A4000215C3F4F4F4F5F4FE0E0F0E02030A0E0EF
:100A50003A07A0E04A07A0E45A0710F0E1E0F0E00E
:100A600079018A0127C06038710564F5FB01E158FE
:100A7000FF4FD801C7018F779070A070B07080349D
:100A80009105A105B10539F4E7FE0DC080E490E0C1
:100A9000A0E0B0E004C08FE390E0A0E0B0E0E80E9A
:100AA000F91E0A1F1B1F17FF05C016950795F7941F
:100AB000E794319687E016950795F794E7948A9521
:100AC000D1F705C0EE24FF248701EFEFF0E06E2F91
:100AD000679566276795902F9F77D794DD24D794E5
:100AE0008E2F8695492F462B582F5D29B701CA01B5
:100AF0001F910F91FF90EF90DF900895FC01DB01B3
:100B0000408151812281622F6F7770E0221F22275E
:100B1000221F9381892F880F822B282F30E0991F65
:100B20009927991F11969C93119721153105A9F5C5
:100B3000411551056105710511F482E037C082E865
:100B40009FEF13969C938E9312979A01AB0167E0E7
:100B5000220F331F441F551F6A95D1F783E08C93F2
:100B60000DC0220F331F441F551F12968D919C916B
:100B70001397019713969C938E931297203080E0E1
:100B8000380780E0480780E4580758F314962D93FF
:100B90003D934D935C93179708952F3F310579F45A
:100BA000411551056105710519F484E08C93089590
:100BB00064FF03C081E08C9312C01C9210C02F57B9
:100BC000304013963C932E93129783E08C9387E0EA
:100BD000440F551F661F771F8A95D1F770641496CE
:100BE0004D935D936D937C93179708951F93DC014C
:100BF000FB019C91923008F447C08081823008F458
:100C000043C0943051F411961C91843099F5818140
:100C1000682F70E0611B71093FC0843021F0923071
:100C200031F48230B9F18181882389F12DC0119688
:100C30001C9111978230F1F081811817D9F4129626
:100C40002D913C911397828193818217930794F0A1
:100C500028173907BCF014968D919D910D90BC9189
:100C6000A02D2481358146815781281739074A07ED
:100C70005B0718F4112341F00AC082179307A407F9
:100C8000B50740F4112319F061E070E005C06FEF83
:100C90007FEF02C060E070E0CB011F910895DF9309
:100CA000CF9300D0CDB7DEB789836A838A8188234A
:100CB00009F074C089818830A8F4ABE3B0E0EBE3BD
:100CC000F0E08081482F8981282F30E081E090E09A
:100CD000022E02C0880F991F0A94E2F780958423A0
:100CE0008C93CDC089818830D8F089818031C0F45F
:100CF000A8E3B0E0E8E3F0E08081482F8981882F05
:100D000090E09C012850304081E090E0022E02C02B
:100D1000880F991F0A94E2F7809584238C93AFC0C3
:100D200089818031D8F089818831C0F4A5E3B0E0B1
:100D3000E5E3F0E08081482F8981882F90E09C01D5
:100D40002051304081E090E0022E02C0880F991FB0
:100D50000A94E2F7809584238C9391C0898188312D
:100D600008F48DC08981803208F089C0A2E3B0E028
:100D7000E2E3F0E08081482F8981882F90E09C0198
:100D80002851304081E090E0022E02C0880F991F68
:100D90000A94E2F7809584238C9371C08A81813014
:100DA00009F06DC089818830A0F4ABE3B0E0EBE3DB
:100DB000F0E08081482F8981282F30E081E090E0A9
:100DC000022E02C0880F991F0A94E2F7842B8C939D
:100DD00056C089818830D0F089818031B8F4A8E389
:100DE000B0E0E8E3F0E08081482F8981882F90E02F
:100DF0009C012850304081E090E0022E02C0880F14
:100E0000991F0A94E2F7842B8C9339C08981803131
:100E1000D0F089818831B8F4A5E3B0E0E5E3F0E0F3
:100E20008081482F8981882F90E09C01205130409B
:100E300081E090E0022E02C0880F991F0A94E2F729
:100E4000842B8C931CC089818831C8F089818032C1
:100E5000B0F4A2E3B0E0E2E3F0E08081482F8981C2
:100E6000882F90E09C012851304081E090E0022ED4
:100E700002C0880F991F0A94E2F7842B8C930F907D
:100E80000F90CF91DF910895DF93CF9300D0CDB72E
:100E9000DEB78A8319828A81883090F4E9E3F0E032
:100EA0008081482F8A81282F30E081E090E0022E57
:100EB00002C0880F991F0A94E2F78423898350C0E7
:100EC0008A818830C0F08A818031A8F4E6E3F0E0BE
:100ED0008081482F8A81882F90E09C0128503040E3
:100EE00081E090E0022E02C0880F991F0A94E2F779
:100EF0008423898335C08A818031C0F08A8188311A
:100F0000A8F4E3E3F0E08081482F8A81882F90E005
:100F10009C012051304081E090E0022E02C0880FF9
:100F2000991F0A94E2F7842389831AC08A81883141
:100F3000B8F08A818032A0F4E0E3F0E08081482FAD
:100F40008A81882F90E09C012851304081E090E018
:100F5000022E02C0880F991F0A94E2F78423898326
:100F600089810F900F90CF91DF910895DF93CF93F8
:100F700000D0CDB7DEB789836A838A81813009F0DA
:100F800070C089818830A0F4AAE3B0E0EAE3F0E021
:100F90008081482F8981282F30E081E090E0022E67
:100FA00002C0880F991F0A94E2F7842B8C93CEC05D
:100FB00089818830D0F089818031B8F4A7E3B0E02E
:100FC000E7E3F0E08081482F8981882F90E09C0141
:100FD0002850304081E090E0022E02C0880F991F17
:100FE0000A94E2F7842B8C93B1C089818031D0F0D0
:100FF00089818831B8F4A4E3B0E0E4E3F0E08081D3
:10100000482F8981882F90E09C012051304081E059
:1010100090E0022E02C0880F991F0A94E2F7842BF9
:101020008C9394C08981883108F490C08981803282
:1010300008F08CC0A1E3B0E0E1E3F0E08081482F4C
:101040008981882F90E09C012851304081E090E018
:10105000022E02C0880F991F0A94E2F7842B8C930A
:1010600075C08A81882309F071C089818830A8F40D
:10107000AAE3B0E0EAE3F0E08081482F8981282FDD
:1010800030E081E090E0022E02C0880F991F0A94A0
:10109000E2F7809584238C9359C089818830D8F0F9
:1010A00089818031C0F4A7E3B0E0E7E3F0E080811C
:1010B000482F8981882F90E09C012850304081E0A2
:1010C00090E0022E02C0880F991F0A94E2F78095E3
:1010D00084238C933BC089818031D8F08981883109
:1010E000C0F4A4E3B0E0E4E3F0E08081482F89811C
:1010F000882F90E09C012051304081E090E0022E4A
:1011000002C0880F991F0A94E2F7809584238C937C
:101110001DC089818831D0F089818032B8F4A1E383
:10112000B0E0E1E3F0E08081482F8981882F90E0F2
:101130009C012851304081E090E0022E02C0880FCF
:10114000991F0A94E2F7809584238C930F900F9057
:10115000CF91DF910895DF93CF93CDB7DEB7A3E5AD
:10116000B0E0E3E5F0E0808183608C93E2E5F0E0BD
:101170001082CF91DF910895DF93CF93CDB7DEB783
:1011800028970FB6F894DEBF0FBECDBF6D837E8368
:101190008F839887ECE5F0E089EF8083E2E5F0E06B
:1011A000108219821A821B821C821BC0E8E5F0E0C3
:1011B0008081882F90E0817090700097B9F3A8E546
:1011C000B0E0E8E5F0E0808182608C9389819A81CB
:1011D000AB81BC810196A11DB11D89839A83AB832C
:1011E000BC838D819E81AF81B8859C01AD015695F0
:1011F00047953795279589819A81AB81BC81821764
:101200009307A407B50790F228960FB6F894DEBFAF
:101210000FBECDBFCF91DF910895DF93CF93CDB7B0
:10122000DEB72C970FB6F894DEBF0FBECDBF69872F
:101230007A878B879C8719821A821B821C8224C022
:101240001D821E821F8218860BC08D819E81AF81F8
:10125000B8850196A11DB11D8D839E83AF83B8878C
:101260008D819E81AF81B885803F9105A105B10533
:1012700060F389819A81AB81BC810196A11DB11D6A
:1012800089839A83AB83BC8329813A814B815C81BA
:1012900089859A85AB85BC85281739074A075B077E
:1012A00078F22C960FB6F894DEBF0FBECDBFCF916B
:1012B000DF9108950F931F93DF93CF93CDB7DEB7E0
:1012C000C256D0400FB6F894DEBF0FBECDBFEAE3E2
:1012D000F0E08FEF8083E7E3F0E08FEF8083E1E3DE
:1012E000F0E08BEF8083FE01E35BFF4F80E090E056
:1012F000A8E4B2E480839183A283B3838E01075B69
:101300001F4FFE01E35BFF4F6081718182819381FA
:1013100020E030E04AE753E40E941F02DC01CB01E9
:10132000F80180839183A283B383FE01E75BFF4FC3
:10133000608171818281938120E030E040E85FE349
:101340000E942504882344F4FE01E95BFF4F81E0FD
:1013500090E09183808364C0FE01E75BFF4F608172
:1013600071818281938120E03FEF4FE757E40E9433
:10137000C50318160CF043C0FE01E35BFF4F60810C
:1013800071818281938120E030E040E251E40E944B
:101390001F02DC01CB018E01095B1F4FBC01CD0197
:1013A0000E944900DC01CB01F801918380831FC0BA
:1013B000FE01EB5BFF4F89E190E091838083FE01AA
:1013C000EB5BFF4F808191810197F1F7FE01EB5BB1
:1013D000FF4F91838083DE01A95BBF4FFE01E95B74
:1013E000FF4F80819181019711969C938E93FE010E
:1013F000E95BFF4F808191810097D1F627C08E0174
:10140000095B1F4FFE01E75BFF4F608171818281A5
:1014100093810E944900DC01CB01F8019183808314
:10142000DE01AD5BBF4FFE01E95BFF4F8081918123
:101430008D939C93FE01ED5BFF4F8081918101971D
:10144000F1F7FE01ED5BFF4F91838083ABE5B0E0E8
:10145000EBE5F0E0808180648C93A5E5B0E0E5E504
:10146000F0E0808181608C93EFE4F0E01082FE0177
:10147000EF5AFF4F1182108281E00E94EB0CFE01B7
:10148000FF9680E090E0A8E4B2E480839183A28399
:10149000B383FE01FF96608171818281938120E098
:1014A00030E04AE753E40E941F02DC01CB018BAF1E
:1014B0009CAFADAFBEAF6BAD7CAD8DAD9EAD20E052
:1014C00030E040E85FE30E94250488232CF481E0AB
:1014D00090E09AAF89AF41C06BAD7CAD8DAD9EAD54
:1014E00020E03FEF4FE757E40E94C50318165CF574
:1014F000FE01FF96608171818281938120E030E05E
:1015000040E251E40E941F02DC01CB01BC01CD018D
:101510000E944900DC01CB019AAF89AF0FC089E17D
:1015200090E098AF8FAB8FA998AD0197F1F798AF86
:101530008FAB89AD9AAD01979AAF89AF89AD9AAD5E
:10154000009769F714C06BAD7CAD8DAD9EAD0E9468
:101550004900DC01CB019AAF89AF89AD9AAD9EAB52
:101560008DAB8DA99EA90197F1F79EAB8DAB88E35A
:101570000E94EB0C80E090E0A8E4B2E489AB9AAB67
:10158000ABABBCAB69A97AA98BA99CA920E030E0E0
:101590004AE753E40E941F02DC01CB018DA79EA7FE
:1015A000AFA7B8AB6DA57EA58FA598A920E030E0C8
:1015B00040E85FE30E94250488232CF481E090E05A
:1015C0009CA78BA73FC06DA57EA58FA598A920E0FD
:1015D0003FEF4FE757E40E94C50318164CF569A981
:1015E0007AA98BA99CA920E030E040E251E40E9456
:1015F0001F02DC01CB01BC01CD010E944900DC01CE
:10160000CB019CA78BA70FC089E190E09AA789A77F
:1016100089A59AA50197F1F79AA789A78BA59CA5FB
:1016200001979CA78BA78BA59CA5009769F714C071
:101630006DA57EA58FA598A90E944900DC01CB016C
:101640009CA78BA78BA59CA598A78FA38FA198A5D6
:101650000197F1F798A78FA38FE00E94EB0C80E031
:1016600090E0A8E4B2E48BA39CA3ADA3BEA36BA1BE
:101670007CA18DA19EA120E030E04AE753E40E94C6
:101680001F02DC01CB018F8F98A3A9A3BAA36F8D92
:1016900078A189A19AA120E030E040E85FE30E94B0
:1016A000250488232CF481E090E09E8F8D8F3FC02D
:1016B0006F8D78A189A19AA120E03FEF4FE757E411
:1016C0000E94C50318164CF56BA17CA18DA19EA1AB
:1016D00020E030E040E251E40E941F02DC01CB0137
:1016E000BC01CD010E944900DC01CB019E8F8D8F92
:1016F0000FC089E190E09C8F8B8F8B8D9C8D019723
:10170000F1F79C8F8B8F8D8D9E8D01979E8F8D8F86
:101710008D8D9E8D009769F714C06F8D78A189A17A
:101720009AA10E944900DC01CB019E8F8D8F8D8D87
:101730009E8D9A8F898F898D9A8D0197F1F79A8F57
:10174000898F7894A2E3B0E0E2E3F0E080818160E9
:101750008C9380E090E0A0E7B1E48D8B9E8BAF8B03
:10176000B88F6D897E898F89988D2BEA3AEA4AEA8B
:101770005EE30E941F02DC01CB01898B9A8BAB8B4D
:10178000BC8B69897A898B899C8920E030E040E8AC
:101790005FE30E94250488231CF481E0888B91C0BC
:1017A00069897A898B899C8920E030E04FE753E48E
:1017B0000E94C50318160CF07BC06D897E898F8945
:1017C000988D20E030E04AE754E40E941903DC01E0
:1017D000CB018C879D87AE87BF876C857D858E8585
:1017E0009F8520E030E04AE753E40E941F02DC01BD
:1017F000CB0188879987AA87BB87688579858A8581
:101800009B8520E030E040E85FE30E9425048823C8
:101810002CF481E090E09F838E833FC068857985BA
:101820008A859B8520E03FEF4FE757E40E94C50380
:1018300018164CF56C857D858E859F8520E030E0FF
:1018400040E251E40E941F02DC01CB01BC01CD014A
:101850000E944900DC01CB019F838E830FC089E188
:1018600090E09D838C838C819D810197F1F79D830E
:101870008C838E819F8101979F838E838E819F8130
:10188000009769F724C0688579858A859B850E94C1
:101890004900DC01CB019F838E838E819F819B83D6
:1018A0008A838A819B810197F1F79B838A830FC08A
:1018B00069897A898B899C890E944900DC01CB0166
:1018C000888B8889898389818A95F1F78983A2E346
:1018D000B0E0E2E3F0E080818E7F8C93809188001D
:1018E00090918900FE01EF5AFF4F24E432E0B901E4
:1018F0000E944C0ECB019183808380E690E00E9491
:101900002F0E80EC0E94EB0C8FE690E00E942F0ED1
:10191000FE01EF5AFF4F808191819E012D5A3F4F6A
:10192000B9014AE050E00E94AA0ECE018D5A9F4FA5
:101930000E942F0E89E790E00E942F0E80E80E94FF
:10194000EB0C00CF1F920F920FB60F9211248F93C2
:101950009F93AF93BF93EF93FF93DF93CF93CDB755
:10196000DEB780918A0090918B008130910599F4C7
:10197000EEE4F0E01082ECE4F0E08081918190935D
:10198000890080938800ECE4F0E0118210821092CC
:101990008B0010928A0080918A0090918B000097B2
:1019A00069F4AEE4B0E0EEE4F0E0808181608C9315
:1019B00081E090E090938B0080938A00CF91DF913B
:1019C000FF91EF91BF91AF919F918F910F900FBEBB
:1019D0000F901F901895DF93CF93CDB7DEB72F9759
:1019E0000FB6F894DEBF0FBECDBF8F87E8E3F0E0FF
:1019F0008F858083A2E3B0E0E2E3F0E080818F7B1B
:101A00008C93A2E3B0E0E2E3F0E0808180628C930B
:101A100080E090E0A0E0B1E48B879C87AD87BE8733
:101A20006B857C858D859E8520E030E04AE753E418
:101A30000E941F02DC01CB018F839887A987BA8798
:101A40006F81788589859A8520E030E040E85FE302
:101A50000E94250488232CF481E090E09E838D83EE
:101A60003FC06F81788589859A8520E03FEF4FE7F9
:101A700057E40E94C50318164CF56B857C858D854F
:101A80009E8520E030E040E251E40E941F02DC012C
:101A9000CB01BC01CD010E944900DC01CB019E833A
:101AA0008D830FC089E190E09C838B838B819C8127
:101AB0000197F1F79C838B838D819E8101979E8393
:101AC0008D838D819E81009769F714C06F81788521
:101AD00089859A850E944900DC01CB019E838D8314
:101AE0008D819E819A83898389819A810197F1F7FB
:101AF0009A838983A2E3B0E0E2E3F0E08081807C16
:101B00008C93E8E3F0E010822F960FB6F894DEBFD6
:101B10000FBECDBFCF91DF910895DF93CF93CDB7A7
:101B2000DEB72F970FB6F894DEBF0FBECDBF8F87FD
:101B3000E8E3F0E08F858083A2E3B0E0E2E3F0E049
:101B4000808180648C93A2E3B0E0E2E3F0E08081E6
:101B500080628C9380E090E0A0E0B1E48B879C876A
:101B6000AD87BE876B857C858D859E8520E030E0C6
:101B70004AE753E40E941F02DC01CB018F83988760
:101B8000A987BA876F81788589859A8520E030E0BA
:101B900040E85FE30E94250488232CF481E090E074
:101BA0009E838D833FC06F81788589859A8520E0EB
:101BB0003FEF4FE757E40E94C50318164CF56B85BD
:101BC0007C858D859E8520E030E040E251E40E94D6
:101BD0001F02DC01CB01BC01CD010E944900DC01E8
:101BE000CB019E838D830FC089E190E09C838B8322
:101BF0008B819C810197F1F79C838B838D819E81E2
:101C000001979E838D838D819E81009769F714C013
:101C10006F81788589859A850E944900DC01CB0116
:101C20009E838D838D819E819A83898389819A8108
:101C30000197F1F79A838983A2E3B0E0E2E3F0E051
:101C40008081807C8C93E8E3F0E010822F960FB6C1
:101C5000F894DEBF0FBECDBFCF91DF910895DF9323
:101C6000CF9300D0CDB7DEB79A8389830BC0E981CB
:101C7000FA81208189819A8101969A838983822FB2
:101C80000E948D0DE981FA818081882381F70F9070
:101C90000F90CF91DF91089597FB092E07260AD068
:101CA00077FD04D00CD006D000201AF47095619511
:101CB0007F4F0895F6F7909581959F4F0895AA1B41
:101CC000BB1B51E107C0AA1FBB1FA617B70710F027
:101CD000A61BB70B881F991F5A95A9F78095909559
:101CE000BC01CD0108952F923F924F925F926F9267
:101CF0007F928F929F92AF92BF92CF92DF92EF929C
:101D0000FF920F931F93CF93DF93CDB7DEB7CA1B1C
:101D1000DB0B0FB6F894DEBF0FBECDBF09942A8847
:101D2000398848885F846E847D848C849B84AA84EF
:101D3000B984C884DF80EE80FD800C811B81AA817C
:101D4000B981CE0FD11D0FB6F894DEBF0FBECDBF47
:101D5000ED010895FB019F01E8944230C4F0453243
:101D6000B4F44A3029F497FB1EF4909581959F4F67
:101D7000642F77270E945F0E805D8A330CF0895DA7
:101D80008193CB010097A1F716F45DE25193108285
:101D9000C9010C94CB0EDC01FC01672F71917723F4
:101DA000E1F7329704C07C916D9370836291AE1716
:0A1DB000BF07C8F30895F894FFCFB1
:101DBA0043495243554954204449474553540044E2
:101DCA00495354414E43453D00636D202020200075
:081DDA00000000000000000001
:00000001FF
