:100000000C942A000C9447000C9447000C940E0B9F
:100010000C9447000C9447000C9447000C94470044
:100020000C9447000C9447000C9447000C94470034
:100030000C9447000C9447000C9447000C94470024
:100040000C9447000C9447000C9447000C94470014
:100050000C94470011241FBECFE5D8E0DEBFCDBF12
:1000600010E0A8E6B0E001C01D92AB36B107E1F7A1
:1000700010E0A0E6B0E0E2E4F9E102C005900D92E4
:10008000A836B107D9F70E94590A0C949F0C0C941A
:100090000000EF92FF920F931F937B018C0120E0F1
:1000A00030E040E05FE40E94F50388238CF0C80153
:1000B000B70120E030E040E05FE40E94C1010E940F
:1000C00055049B01AC01205030404040504806C0D0
:1000D000C801B7010E9455049B01AC01B901CA01D6
:1000E0001F910F91FF90EF900895A0E0B0E0EBE733
:1000F000F0E00C94680CDC012B01FA019C91923029
:1001000008F439C1EB018881823008F433C194309E
:1001100069F4843009F02FC111969C91119789815F
:10012000981709F428C1A0E6B0E025C1843009F48D
:1001300021C18230A9F4923009F01DC19A01AD01AC
:1001400088E0EA010990AE01E90109929E0181501F
:10015000C1F7E201898111969C918923818308C1AD
:10016000923009F407C112962D903C901397EB0141
:100170008A819B811496AD90BD90CD90DC901797AD
:10018000EC80FD800E811F819101281B390BB90184
:1001900037FF04C066277727621B730B6032710537
:1001A0000CF061C0121613066CF537014801062EDB
:1001B00004C096948794779467940A94D2F721E0C8
:1001C00030E040E050E004C0220F331F441F551FB1
:1001D0006A95D2F721503040404050402E213F21B7
:1001E00040235123211531054105510521F021E01E
:1001F00030E040E050E079018A01E628F72808293C
:1002000019293CC0232BD1F1260E371E350146019A
:10021000062E04C096948794779467940A94D2F734
:1002200021E030E040E050E004C0220F331F441FC3
:10023000551F6A95D2F721503040404050402A2146
:100240003B214C215D21211531054105510521F04E
:1002500021E030E040E050E059016A01A628B728CB
:10026000C828D9280BC0821593052CF01C01AA249C
:10027000BB24650103C0EE24FF24870111969C91E5
:10028000D20111968C91981709F445C0992339F041
:10029000A80197012A193B094C095D0906C0A6016E
:1002A00095012E193F09400B510B57FD08C01182D3
:1002B0003382228224833583468357831DC081E0A5
:1002C00081833382228288279927DC01821B930B4A
:1002D000A40BB50B84839583A683B7830DC0220F2F
:1002E000331F441F551F24833583468357838281E0
:1002F000938101979383828324813581468157813D
:10030000DA01C9010197A109B1098F5F9F4FAF4F72
:10031000BF4328F30BC0918333822282EA0CFB1C7B
:100320000C1D1D1DE482F5820683178383E0808304
:10033000248135814681578157FF1AC0C901AA27F8
:1003400097FDA095BA2F81709070A070B0705695EF
:10035000479537952795822B932BA42BB52B848318
:100360009583A683B7838281938101969383828349
:10037000DF0101C0D201CD01CDB7DEB7E2E10C94BF
:10038000840CA0E2B0E0E7ECF1E00C94740C69831B
:100390007A838B839C832D833E834F835887E9E048
:1003A000EE2EF12CEC0EFD1ECE010196B7010E943F
:1003B0007E058E010F5E1F4FCE010596B8010E948B
:1003C0007E058A8991E089278A8BC701B801AE0131
:1003D000475E5F4F0E9475000E94A904A096E6E068
:1003E0000C94900CA0E2B0E0E8EFF1E00C94740CF7
:1003F00069837A838B839C832D833E834F835887C5
:10040000F9E0EF2EF12CEC0EFD1ECE010196B701A6
:100410000E947E058E010F5E1F4FCE010596B8012A
:100420000E947E05C701B801AE01475E5F4F0E9482
:1004300075000E94A904A096E6E00C94900CA0E23E
:10044000B0E0E5E2F2E00C94680C69837A838B8378
:100450009C832D833E834F835887CE010196BE0136
:10046000675F7F4F0E947E05CE010596BE016F5EDD
:100470007F4F0E947E059985923088F0898982306D
:10048000C8F0943019F4823051F404C0843029F457
:10049000923081F480E690E0C6C0923049F420E0CA
:1004A0009A858A89981321E02A87CE010996BBC0D4
:1004B000823049F420E09A858A89981321E02A8BBA
:1004C000CE014196B0C02D843E844F8458886D88FB
:1004D0007E888F88988CEE24FF248701AA24BB2471
:1004E000650140E050E060E070E0E0E0F0E0C10174
:1004F00081709070892BE9F0E60CF71C081D191D1E
:100500009A01AB012A0D3B1D4C1D5D1D80E090E062
:10051000A0E0B0E0E614F7040805190520F481E036
:1005200090E0A0E0B0E0BA01A901480F591F6A1F8E
:100530007B1FAA0CBB1CCC1CDD1C97FE08C081E0F5
:1005400090E0A0E0B0E0A82AB92ACA2ADB2A3196B6
:10055000E032F10549F0660C771C881C991C569412
:10056000479437942794C3CFFA85EA892B893C892D
:100570008B859C85280F391F2E5F3F4F17C0CA01FE
:1005800081709070892B61F016950795F794E79428
:1005900080E090E0A0E0B0E8E82AF92A0A2B1B2BC3
:1005A00076956795579547952F5F3F4F77FDE7CF36
:1005B0000CC0440F551F661F771F17FD4160EE0CDE
:1005C000FF1C001F111F21503040403090E05907A0
:1005D00090E0690790E4790760F32B8F3C8FDB0193
:1005E000CA018F779070A070B07080349105A1051A
:1005F000B10561F447FD0AC0E114F10401051105DC
:1006000029F0405C5F4F6F4F7F4F40781A8EFE1786
:1006100011F081E08A8F4D8F5E8F6F8F78A383E01A
:10062000898FCE0149960E94A904A096E2E10C941C
:10063000840CA8E1B0E0EFE1F3E00C94700C698366
:100640007A838B839C832D833E834F835887B9E0C5
:10065000EB2EF12CEC0EFD1ECE010196B7010E948F
:100660007E058E010F5E1F4FCE010596B8010E94D8
:100670007E052985223008F47EC03989323010F495
:10068000B8017CC08A859A8989278A87243011F02D
:10069000223031F4231709F06EC060E670E06EC0BE
:1006A000343039F41D861E861F86188A1C861B86E8
:1006B00004C0323021F484E08987B7015FC02B8504
:1006C0003C858B899C89281B390B3C872B87ED84C3
:1006D000FE840F851889AD88BE88CF88D88CEA142F
:1006E000FB040C051D0540F4EE0CFF1C001F111F40
:1006F000215030403C872B8720E030E040E050E044
:1007000080E090E0A0E0B0E460E070E0EA14FB0478
:100710000C051D0540F0282B392B4A2B5B2BEA18C2
:10072000FB080C091D09B695A79597958795EE0CC2
:10073000FF1C001F111F6F5F7F4F6F31710531F775
:10074000DA01C9018F779070A070B0708034910584
:10075000A105B10561F427FD0AC0E114F10401050A
:10076000110529F0205C3F4F4F4F5F4F20782D87B8
:100770003E874F87588BBE01675F7F4FCB010E943A
:10078000A9046896EAE00C948C0CA8E1B0E0EBECCC
:10079000F3E00C94740C69837A838B839C832D83A0
:1007A0003E834F83588789E0E82EF12CEC0EFD1E26
:1007B000CE010196B7010E947E058E010F5E1F4F8C
:1007C000CE010596B8010E947E058985823040F0F1
:1007D0008989823028F0C701B8010E94F60501C05E
:1007E0008FEF6896E6E00C94900CA8E1B0E0EBEF98
:1007F000F3E00C94740C69837A838B839C832D8340
:100800003E834F83588789E0E82EF12CEC0EFD1EC5
:10081000CE010196B7010E947E058E010F5E1F4F2B
:10082000CE010596B8010E947E058985823040F090
:100830008989823028F0C701B8010E94F60501C0FD
:100840008FEF6896E6E00C94900CA8E1B0E0EBE244
:10085000F4E00C94740C69837A838B839C832D83DE
:100860003E834F83588789E0E82EF12CEC0EFD1E65
:10087000CE010196B7010E947E058E010F5E1F4FCB
:10088000CE010596B8010E947E058985823040F030
:100890008989823028F0C701B8010E94F60501C09D
:1008A00081E06896E6E00C94900CACE0B0E0EBE5FB
:1008B000F4E00C94780C69837A838B839C83CE015B
:1008C0000196BE016B5F7F4F0E947E058D81823055
:1008D00061F1823050F1843021F48E81882351F10E
:1008E0002EC02F81388537FD20C06E812F31310514
:1008F0001CF06623F9F023C08EE190E0821B930B7D
:1009000029853A854B855C8504C056954795379572
:1009100027958A95D2F76623B1F05095409530958A
:1009200021953F4F4F4F5F4F0EC020E030E040E039
:1009300050E009C02FEF3FEF4FEF5FE704C020E02A
:1009400030E040E050E8B901CA012C96E2E00C9496
:10095000940CDF92EF92FF920F931F93FC01E480BF
:10096000F58006811781D1808081823048F480E053
:1009700090E0A0E1B0E0E82AF92A0A2B1B2BA5C0E1
:10098000843009F49FC0823021F4EE24FF248701D3
:1009900005C0E114F1040105110519F4E0E0F0E0EF
:1009A00096C0628173819FEF623879070CF05BC05B
:1009B00022E83FEF261B370B2A3131052CF020E0CF
:1009C00030E040E050E02AC0B801A701022E04C088
:1009D00076956795579547950A94D2F781E090E010
:1009E000A0E0B0E004C0880F991FAA1FBB1F2A9582
:1009F000D2F70197A109B1098E219F21A023B1232C
:100A00000097A105B10521F081E090E0A0E0B0E001
:100A10009A01AB01282B392B4A2B5B2BDA01C90138
:100A20008F779070A070B07080349105A105B105EA
:100A300039F427FF09C0205C3F4F4F4F5F4F04C080
:100A4000215C3F4F4F4F5F4FE0E0F0E02030A0E0EF
:100A50003A07A0E04A07A0E45A0710F0E1E0F0E00E
:100A600079018A0127C06038710564F5FB01E158FE
:100A7000FF4FD801C7018F779070A070B07080349D
:100A80009105A105B10539F4E7FE0DC080E490E0C1
:100A9000A0E0B0E004C08FE390E0A0E0B0E0E80E9A
:100AA000F91E0A1F1B1F17FF05C016950795F7941F
:100AB000E794319687E016950795F794E7948A9521
:100AC000D1F705C0EE24FF248701EFEFF0E06E2F91
:100AD000679566276795902F9F77D794DD24D794E5
:100AE0008E2F8695492F462B582F5D29B701CA01B5
:100AF0001F910F91FF90EF90DF900895FC01DB01B3
:100B0000408151812281622F6F7770E0221F22275E
:100B1000221F9381892F880F822B282F30E0991F65
:100B20009927991F11969C93119721153105A9F5C5
:100B3000411551056105710511F482E037C082E865
:100B40009FEF13969C938E9312979A01AB0167E0E7
:100B5000220F331F441F551F6A95D1F783E08C93F2
:100B60000DC0220F331F441F551F12968D919C916B
:100B70001397019713969C938E931297203080E0E1
:100B8000380780E0480780E4580758F314962D93FF
:100B90003D934D935C93179708952F3F310579F45A
:100BA000411551056105710519F484E08C93089590
:100BB00064FF03C081E08C9312C01C9210C02F57B9
:100BC000304013963C932E93129783E08C9387E0EA
:100BD000440F551F661F771F8A95D1F770641496CE
:100BE0004D935D936D937C93179708951F93DC014C
:100BF000FB019C91923008F447C08081823008F458
:100C000043C0943051F411961C91843099F5818140
:100C1000682F70E0611B71093FC0843021F0923071
:100C200031F48230B9F18181882389F12DC0119688
:100C30001C9111978230F1F081811817D9F4129626
:100C40002D913C911397828193818217930794F0A1
:100C500028173907BCF014968D919D910D90BC9189
:100C6000A02D2481358146815781281739074A07ED
:100C70005B0718F4112341F00AC082179307A407F9
:100C8000B50740F4112319F061E070E005C06FEF83
:100C90007FEF02C060E070E0CB011F910895DF9309
:100CA000CF9300D0CDB7DEB789836A838A8188234A
:100CB00009F074C089818830A8F4ABE3B0E0EBE3BD
:100CC000F0E08081482F8981282F30E081E090E09A
:100CD000022E02C0880F991F0A94E2F780958423A0
:100CE0008C93CDC089818830D8F089818031C0F45F
:100CF000A8E3B0E0E8E3F0E08081482F8981882F05
:100D000090E09C012850304081E090E0022E02C02B
:100D1000880F991F0A94E2F7809584238C93AFC0C3
:100D200089818031D8F089818831C0F4A5E3B0E0B1
:100D3000E5E3F0E08081482F8981882F90E09C01D5
:100D40002051304081E090E0022E02C0880F991FB0
:100D50000A94E2F7809584238C9391C0898188312D
:100D600008F48DC08981803208F089C0A2E3B0E028
:100D7000E2E3F0E08081482F8981882F90E09C0198
:100D80002851304081E090E0022E02C0880F991F68
:100D90000A94E2F7809584238C9371C08A81813014
:100DA00009F06DC089818830A0F4ABE3B0E0EBE3DB
:100DB000F0E08081482F8981282F30E081E090E0A9
:100DC000022E02C0880F991F0A94E2F7842B8C939D
:100DD00056C089818830D0F089818031B8F4A8E389
:100DE000B0E0E8E3F0E08081482F8981882F90E02F
:100DF0009C012850304081E090E0022E02C0880F14
:100E0000991F0A94E2F7842B8C9339C08981803131
:100E1000D0F089818831B8F4A5E3B0E0E5E3F0E0F3
:100E20008081482F8981882F90E09C01205130409B
:100E300081E090E0022E02C0880F991F0A94E2F729
:100E4000842B8C931CC089818831C8F089818032C1
:100E5000B0F4A2E3B0E0E2E3F0E08081482F8981C2
:100E6000882F90E09C012851304081E090E0022ED4
:100E700002C0880F991F0A94E2F7842B8C930F907D
:100E80000F90CF91DF910895DF93CF9300D0CDB72E
:100E9000DEB78A8319828A81883090F4E9E3F0E032
:100EA0008081482F8A81282F30E081E090E0022E57
:100EB00002C0880F991F0A94E2F78423898350C0E7
:100EC0008A818830C0F08A818031A8F4E6E3F0E0BE
:100ED0008081482F8A81882F90E09C0128503040E3
:100EE00081E090E0022E02C0880F991F0A94E2F779
:100EF0008423898335C08A818031C0F08A8188311A
:100F0000A8F4E3E3F0E08081482F8A81882F90E005
:100F10009C012051304081E090E0022E02C0880FF9
:100F2000991F0A94E2F7842389831AC08A81883141
:100F3000B8F08A818032A0F4E0E3F0E08081482FAD
:100F40008A81882F90E09C012851304081E090E018
:100F5000022E02C0880F991F0A94E2F78423898326
:100F600089810F900F90CF91DF910895DF93CF93F8
:100F700000D0CDB7DEB789836A838A81813009F0DA
:100F800070C089818830A0F4AAE3B0E0EAE3F0E021
:100F90008081482F8981282F30E081E090E0022E67
:100FA00002C0880F991F0A94E2F7842B8C93CEC05D
:100FB00089818830D0F089818031B8F4A7E3B0E02E
:100FC000E7E3F0E08081482F8981882F90E09C0141
:100FD0002850304081E090E0022E02C0880F991F17
:100FE0000A94E2F7842B8C93B1C089818031D0F0D0
:100FF00089818831B8F4A4E3B0E0E4E3F0E08081D3
:10100000482F8981882F90E09C012051304081E059
:1010100090E0022E02C0880F991F0A94E2F7842BF9
:101020008C9394C08981883108F490C08981803282
:1010300008F08CC0A1E3B0E0E1E3F0E08081482F4C
:101040008981882F90E09C012851304081E090E018
:10105000022E02C0880F991F0A94E2F7842B8C930A
:1010600075C08A81882309F071C089818830A8F40D
:10107000AAE3B0E0EAE3F0E08081482F8981282FDD
:1010800030E081E090E0022E02C0880F991F0A94A0
:10109000E2F7809584238C9359C089818830D8F0F9
:1010A00089818031C0F4A7E3B0E0E7E3F0E080811C
:1010B000482F8981882F90E09C012850304081E0A2
:1010C00090E0022E02C0880F991F0A94E2F78095E3
:1010D00084238C933BC089818031D8F08981883109
:1010E000C0F4A4E3B0E0E4E3F0E08081482F89811C
:1010F000882F90E09C012051304081E090E0022E4A
:1011000002C0880F991F0A94E2F7809584238C937C
:101110001DC089818831D0F089818032B8F4A1E383
:10112000B0E0E1E3F0E08081482F8981882F90E0F2
:101130009C012851304081E090E0022E02C0880FCF
:10114000991F0A94E2F7809584238C930F900F9057
:10115000CF91DF910895DF93CF93CDB7DEB7AEE4A3
:10116000B0E0EEE4F0E0808182608C93CF91DF917B
:101170000895DF93CF9300D00F92CDB7DEB7898368
:101180008981282F30E03B832A838A819B810097C5
:1011900031F02A813B812130310549F00FC0AEE4A6
:1011A000B0E0EEE4F0E080818F7B8C9307C0AEE48A
:1011B000B0E0EEE4F0E0808180648C930F900F90BB
:1011C0000F90CF91DF910895DF93CF93CDB7DEB726
:1011D0008EE160E00E94B6070E94AB08EDE4F0E00B
:1011E0001082ECE4F0E010820E943F090E94230983
:1011F000CF91DF910895DF93CF9300D000D0CDB78A
:10120000DEB7E7E4F0E08081882F90E0982F882710
:10121000009729F4E6E4F0E08081882329F081E05A
:1012200090E09C838B8302C01C821B828B819C81FB
:101230009A83898389819A810F900F900F900F90E4
:10124000CF91DF910895DF93CF93CDB7DEB7AFE5B0
:10125000B0E0EFE5F0E0808180688C93CF91DF9182
:101260000895DF93CF93CDB7DEB7A9E5B0E0E9E508
:10127000F0E0808184608C93CF91DF910895DF93BB
:10128000CF93CDB7DEB7A9E5B0E0E9E5F0E0808126
:1012900080628C93CF91DF910895DF93CF930F926B
:1012A000CDB7DEB7E8E5F0E08081882F90E080726E
:1012B0009070009719F081E0898301C019828981BB
:1012C0000F90CF91DF910895DF93CF93CDB7DEB725
:1012D000EDE4F0E01082ECE4F0E01082CF91DF91D9
:1012E0000895DF93CF93CDB7DEB7ABE5B0E0EBE584
:1012F000F0E0808180628C93CF91DF910895DF933D
:10130000CF9300D00F92CDB7DEB789838981282F84
:1013100030E03B832A838A819B81009731F02A81C8
:101320003B812130310549F00FC0A4E5B0E0E4E590
:10133000F0E080818F7B8C9307C0A4E5B0E0E4E50A
:10134000F0E0808180648C930F900F900F90CF918C
:10135000DF910895DF93CF93CDB7DEB7A3E5B0E07B
:10136000E3E5F0E0808183608C93E2E5F0E01082B9
:10137000CF91DF910895DF93CF93CDB7DEB7289754
:101380000FB6F894DEBF0FBECDBF6D837E838F8313
:101390009887ECE5F0E089EF8083E2E5F0E01082E9
:1013A00019821A821B821C821BC0E8E5F0E0808152
:1013B000882F90E0817090700097B9F3A8E5B0E0B5
:1013C000E8E5F0E0808182608C9389819A81AB812D
:1013D000BC810196A11DB11D89839A83AB83BC8317
:1013E0008D819E81AF81B8859C01AD015695479551
:1013F0003795279589819A81AB81BC8182179307A4
:10140000A407B50790F228960FB6F894DEBF0FBE7A
:10141000CDBFCF91DF910895DF93CF93CDB7DEB7E6
:101420002C970FB6F894DEBF0FBECDBF69877A87C1
:101430008B879C8719821A821B821C8224C01D8282
:101440001E821F8218860BC08D819E81AF81B88558
:101450000196A11DB11D8D839E83AF83B8878D81B9
:101460009E81AF81B885803F9105A105B10560F3EC
:1014700089819A81AB81BC810196A11DB11D8983AF
:101480009A83AB83BC8329813A814B815C818985B6
:101490009A85AB85BC85281739074A075B0778F220
:1014A0002C960FB6F894DEBF0FBECDBFCF91DF9163
:1014B0000895DF93CF93CDB7DEB762970FB6F89458
:1014C000DEBF0FBECDBF8CE061E00E94B6078CE0AE
:1014D00060E00E944F068EE061E00E94B6078EE059
:1014E00060E00E944F061F86188A198A1A8AEAE36A
:1014F000F0E08FEF80830E946C0B80E090E0A8E426
:10150000B2E48B879C87AD87BE876B857C858D8594
:101510009E8520E030E04AE755E40E941F02DC018E
:10152000CB018F839887A987BA876F817885898552
:101530009A8520E030E040E85FE30E94250488239C
:101540002CF481E090E09E838D833FC06F8178858D
:1015500089859A8520E03FEF4FE757E40E94C50355
:1015600018164CF56B857C858D859E8520E030E0D6
:1015700040E251E40E941F02DC01CB01BC01CD011D
:101580000E944900DC01CB019E838D830FC080E95E
:1015900091E09C838B838B819C810197F1F79C83E5
:1015A0008B838D819E8101979E838D838D819E810A
:1015B000009769F714C06F81788589859A850E94A4
:1015C0004900DC01CB019E838D838D819E819A83AE
:1015D000898389819A810197F1F79A8389830E948F
:1015E00023090E94710981E00E947F09EFE4F0E085
:1015F00010820E947B0B809168009091690024E426
:1016000032E0B9010E94540CCB010796CC01A0E056
:10161000B0E08F87988BA98BBA8BEBCF1F920F927C
:101620000FB60F9211242F933F934F935F936F93B5
:101630007F938F939F93AF93BF93EF93FF93DF932A
:10164000CF93CDB7DEB78CE061E00E944F0680916A
:101650006A00882391F4AEE4B0E0EEE4F0E080812B
:1016600081608C9381E080936A00A4E5B0E0E4E5BA
:10167000F0E080818F7B8C931CC080916A00813068
:10168000C1F4EEE4F0E01082ECE4F0E080819181BE
:101690009093690080936800ECE4F0E0118210827E
:1016A00010926A00A4E5B0E0E4E5F0E08081806497
:1016B0008C93CF91DF91FF91EF91BF91AF919F916B
:1016C0008F917F916F915F914F913F912F910F90EB
:1016D0000FBE0F901F901895DF93CF93CDB7DEB755
:1016E0008DE061E00E94B6078DE060E00E944F0649
:1016F000CF91DF910895DF93CF93CDB7DEB7689791
:101700000FB6F894DEBF0FBECDBF8DE061E00E9442
:101710004F0680E090E0A0E7B1E48D8B9E8BAF8B0D
:10172000B88F6D897E898F89988D2BEA3AEA4AEACB
:1017300050E40E941F02DC01CB01898B9A8BAB8B9A
:10174000BC8B69897A898B899C8920E030E040E8EC
:101750005FE30E94250488231CF481E0888B91C0FC
:1017600069897A898B899C8920E030E04FE753E4CE
:101770000E94C50318160CF07BC06D897E898F8985
:10178000988D20E030E04AE754E40E941903DC0120
:10179000CB018C879D87AE87BF876C857D858E85C5
:1017A0009F8520E030E04AE755E40E941F02DC01FB
:1017B000CB0188879987AA87BB87688579858A85C1
:1017C0009B8520E030E040E85FE30E942504882309
:1017D0002CF481E090E09F838E833FC068857985FB
:1017E0008A859B8520E03FEF4FE757E40E94C503C1
:1017F00018164CF56C857D858E859F8520E030E040
:1018000040E251E40E941F02DC01CB01BC01CD018A
:101810000E944900DC01CB019F838E830FC080E9C9
:1018200091E09D838C838C819D810197F1F79D834D
:101830008C838E819F8101979F838E838E819F8170
:10184000009769F724C0688579858A859B850E9401
:101850004900DC01CB019F838E838E819F819B8316
:101860008A838A819B810197F1F79B838A830FC0CA
:1018700069897A898B899C890E944900DC01CB01A6
:10188000888B8889898389818A95F1F789838DE09E
:1018900060E00E944F0668960FB6F894DEBF0FBE58
:1018A000CDBFCF91DF910895AA1BBB1B51E107C0AB
:1018B000AA1FBB1FA617B70710F0A61BB70B881FE0
:1018C000991F5A95A9F780959095BC01CD0108956F
:1018D0002F923F924F925F926F927F928F929F9240
:1018E000AF92BF92CF92DF92EF92FF920F931F932E
:1018F000CF93DF93CDB7DEB7CA1BDB0B0FB6F894DF
:10190000DEBF0FBECDBF09942A88398848885F841E
:101910006E847D848C849B84AA84B984C884DF808F
:10192000EE80FD800C811B81AA81B981CE0FD11D73
:101930000FB6F894DEBF0FBECDBFED010895F89449
:02194000FFCFD7
:0819420000000000000000009D
:00000001FF
