S00B00006361722E73726563E3
S11300000C942A000C9447000C9447000C9447006D
S11300100C9447000C9447000C9447000C94470040
S11300200C9447000C9447000C9447000C94470030
S11300300C9447000C9447000C9447000C94470020
S11300400C9447000C9447000C9447000C94470010
S11300500C94470011241FBECFE5D8E0DEBFCDBF0E
S113006010E0A0E6B0E0EAE2F7E002C005900D92ED
S1130070A836B107D9F710E0A8E6B0E001C01D9298
S1130080A836B107E1F70E9449000C9493030C943D
S1130090000080E160E00E94A40181E160E00E9430
S11300A0A40182E160E00E94A4018BE061E00E946F
S11300B0A4010E9438020E94A602C2E0D1E08FEFA0
S11300C090E00E94BC0280E10E945D01813069F4ED
S11300D081E10E945D01882341F482E10E945D0177
S11300E0882319F4C093600028C080E10E945D0158
S11300F0882369F481E10E945D01813041F482E149
S11301000E945D01882319F4D09360003FC080E110
S11301100E945D01882369F481E10E945D018823C6
S113012041F482E10E945D01813019F41092600073
S11301302DC080916000823039F48FEF90E00E94EE
S1130140BC020E945102BBCF813039F484E690E0B6
S11301500E94BC020E945102B2CF882309F0AFCFA3
S11301600E94950280E090E00E94BC028FE996E82C
S1130170A1E081509040A040E1F700C000008FE76B
S113018090E00E94BC020E94730299CF80916000AB
S1130190DBCF8830E8F4662371F44BB321E030E020
S11301A0B90102C0660F771F8A95E2F7CB018095EB
S11301B084238BBB08954BB321E030E0B90102C026
S11301C0660F771F8A95E2F7CB01842B8BBB0895CA
S11301D0982F9850983018F5662389F468B3282F1F
S11301E030E02850304041E050E0CA0102C0880F9E
S11301F0991F2A95E2F78095862388BB089568B3F2
S1130200282F30E02850304041E050E0CA0102C0BD
S1130210880F991F2A95E2F7862B88BB0895982F9B
S11302209051983018F5662389F465B3282F30E08F
S11302302051304041E050E0CA0102C0880F991FAC
S11302402A95E2F78095862385BB089565B3282F08
S113025030E02051304041E050E0CA0102C0880F34
S1130260991F2A95E2F7862B85BB0895982F9851FC
S1130270983010F5662389F462B3282F30E02851B2
S1130280304041E050E0CA0102C0880F991F2A950E
S1130290E2F78095862382BB089562B3282F30E06D
S11302A02851304041E050E0CA0102C0880F991F34
S11302B02A95E2F7862B82BB0895883058F429B337
S11302C030E0A90102C0559547958A95E2F7942F2D
S11302D0917038C0282F2850283078F446B350E065
S11302E0282F30E028503040CA0102C095958795E8
S11302F02A95E2F7982F917025C0282F2051283095
S113030078F443B350E0282F30E020513040CA0144
S113031002C0959587952A95E2F7982F917012C09F
S1130320282F2851283070F440B350E0282F30E0B3
S113033028513040CA0102C0959587952A95E2F765
S1130340982F9170892F08958830E8F4662371F40A
S11303504AB321E030E0B90102C0660F771F8A95E5
S1130360E2F7CB01809584238ABB08954AB321E048
S113037030E0B90102C0660F771F8A95E2F7CB011E
S1130380842B8ABB0895982F9850983018F56623CB
S113039089F467B3282F30E02850304041E050E022
S11303A0CA0102C0880F991F2A95E2F78095862317
S11303B087BB089567B3282F30E02850304041E0D0
S11303C050E0CA0102C0880F991F2A95E2F7862BD4
S11303D087BB0895982F9051983018F5662389F4B7
S11303E064B3282F30E02051304041E050E0CA018E
S11303F002C0880F991F2A95E2F78095862384BB53
S1130400089564B3282F30E02051304041E050E09B
S1130410CA0102C0880F991F2A95E2F7862B84BB74
S11304200895982F9851983010F5662389F461B394
S1130430282F30E02851304041E050E0CA0102C08A
S1130440880F991F2A95E2F78095862381BB08952A
S113045061B3282F30E02851304041E050E0CA0118
S113046002C0880F991F2A95E2F7862B81BB089555
S11304708EE161E00E94A4018FE161E00E94A40189
S11304808AE161E00E94A4018BE161E00E94A40181
S11304908DE161E00E94A4018CE161E00E94A4016D
S11304A008958EE161E00E94C9008FE160E00E943E
S11304B0C9008AE161E00E94C9008BE160E00E940A
S11304C0C90008958EE160E00E94C9008FE161E0F7
S11304D00E94C9008AE160E00E94C9008BE161E0EA
S11304E00E94C90008958EE161E00E94C9008FE175
S11304F060E00E94C9008AE160E00E94C9008BE1CB
S113050061E00E94C90008958EE160E00E94C90084
S11305108FE161E00E94C9008AE161E00E94C900A4
S11305208BE160E00E94C90008958EE160E00E94C2
S1130530C9008FE160E00E94C9008AE160E00E9486
S1130540C9008BE160E00E94C90008950E94BF02C7
S113055080916100813039F483B7806183BF83B7B0
S1130560806283BF0895882331F483B78F7E83BF6D
S113057083B7806283BF089580958CBF08951CBEA5
S113058013BE12BE80916200882369F483B78F7B07
S113059083BF83B7877F83BF83B78F7E83BF83B7D0
S11305A08F7D83BF26C0813039F483B7806483BFD5
S11305B083B7877F83BF1DC0823069F483B78F7B85
S11305C083BF83B7886083BF83B7806183BF83B7EA
S11305D08F7D83BF0EC0833061F483B7806483BF93
S11305E083B7886083BF83B7806183BF83B780622A
S11305F083BF8091630090916400009751F483B7A6
S1130600816083BF83B78D7F83BF83B78B7F83BFB5
S11306104FC08830910551F483B78E7F83BF83B771
S1130620826083BF83B78B7F83BF42C080349105D0
S113063051F483B7816083BF83B7826083BF83B77C
S11306408B7F83BF35C021E08030920751F483B79C
S11306508E7F83BF83B78D7F83BF83B7846083BF5F
S113066027C024E08030920751F483B7816083BFB0
S113067083B78D7F83BF83B7846083BF19C0823003
S1130680910551F483B78E7F83BF83B7826083BFA4
S113069083B7846083BF0CC08330910549F483B76A
S11306A0816083BF83B7826083BF83B7846083BF65
S11306B080916500813039F489B7826089BF8FB732
S11306C080688FBF05C0882319F489B78D7F89BFDF
S11306D080916600813039F489B7816089BF8FB712
S11306E080688FBF0895882319F489B78E7F89BFE6
S11306F008951FBC1EBC1DBC1CBC1BBC1ABC19BC71
S113070018BC17BC16BC089512BE2DE72CBF009769
S113071049F028B721FFFDCF019728B7226028BFF1
S10D07200097B9F70895F894FFCF8D
S10B072A0201010001000000BE
S9030000FC
