S00B00006361722E73726563E3
S11300000C942A000C9447000C9447000C9447006D
S11300100C9447000C9447000C9447000C94470040
S11300200C9447000C9447000C9447000C94470030
S11300300C9447000C9447000C9447000C94470020
S11300400C9447000C9447000C9447000C94470010
S11300500C94470011241FBECFE5D8E0DEBFCDBF0E
S113006010E0A0E6B0E0E8ECF7E002C005900D92E5
S1130070A836B107D9F710E0A8E6B0E001C01D9298
S1130080A836B107E1F70E9449000C94E2030C94EE
S113009000008CE061E00E94C4018DE061E00E94F8
S11300A0C4018EE061E00E94C40180E160E00E942E
S11300B0C40181E160E00E94C40182E160E00E9429
S11300C0C4018BE061E00E94C4010E9458020E94B6
S11300D0BE02C2E080E10E947D01813069F481E1C9
S11300E00E947D01882341F482E10E947D018823DE
S11300F019F4C093600029C080E10E947D01882327
S113010071F481E10E947D01813049F482E10E9411
S11301107D01882321F481E08093600056C080E152
S11301200E947D01882369F481E10E947D01882376
S113013041F482E10E947D01813019F41092600043
S113014044C080916000823091F480E50E94D40222
S11301500E9469028CE061E00E94E9008DE060E0A9
S11301600E94E9008EE060E00E94E900B3CF813094
S113017091F488E20E94D4020E9469028CE060E05B
S11301800E94E9008DE061E00E94E9008EE060E0F9
S11301900E94E9009FCF882309F09CCF8CE060E0A7
S11301A00E94E9008DE060E00E94E9008EE061E0D9
S11301B00E94E90088E20E94D4020E948B0280918E
S11301C06000823009F486CF03C080916000CFCFF5
S11301D0FFCF8830E8F4662371F44BB321E030E0BC
S11301E0B90102C0660F771F8A95E2F7CB018095AB
S11301F084238BBB08954BB321E030E0B90102C0E6
S1130200660F771F8A95E2F7CB01842B8BBB089589
S1130210982F9850983018F5662389F468B3282FDE
S113022030E02850304041E050E0CA0102C0880F5D
S1130230991F2A95E2F78095862388BB089568B3B1
S1130240282F30E02850304041E050E0CA0102C07D
S1130250880F991F2A95E2F7862B88BB0895982F5B
S11302609051983018F5662389F465B3282F30E04F
S11302702051304041E050E0CA0102C0880F991F6C
S11302802A95E2F78095862385BB089565B3282FC8
S113029030E02051304041E050E0CA0102C0880FF4
S11302A0991F2A95E2F7862B85BB0895982F9851BC
S11302B0983010F5662389F462B3282F30E0285172
S11302C0304041E050E0CA0102C0880F991F2A95CE
S11302D0E2F78095862382BB089562B3282F30E02D
S11302E02851304041E050E0CA0102C0880F991FF4
S11302F02A95E2F7862B82BB0895883058F429B3F7
S113030030E0A90102C0559547958A95E2F7942FEC
S1130310917038C0282F2850283078F446B350E024
S1130320282F30E028503040CA0102C095958795A7
S11303302A95E2F7982F917025C0282F2051283054
S113034078F443B350E0282F30E020513040CA0104
S113035002C0959587952A95E2F7982F917012C05F
S1130360282F2851283070F440B350E0282F30E073
S113037028513040CA0102C0959587952A95E2F725
S1130380982F9170892F08958830E8F4662371F4CA
S11303904AB321E030E0B90102C0660F771F8A95A5
S11303A0E2F7CB01809584238ABB08954AB321E008
S11303B030E0B90102C0660F771F8A95E2F7CB01DE
S11303C0842B8ABB0895982F9850983018F566238B
S11303D089F467B3282F30E02850304041E050E0E2
S11303E0CA0102C0880F991F2A95E2F780958623D7
S11303F087BB089567B3282F30E02850304041E090
S113040050E0CA0102C0880F991F2A95E2F7862B93
S113041087BB0895982F9051983018F5662389F476
S113042064B3282F30E02051304041E050E0CA014D
S113043002C0880F991F2A95E2F78095862384BB12
S1130440089564B3282F30E02051304041E050E05B
S1130450CA0102C0880F991F2A95E2F7862B84BB34
S11304600895982F9851983010F5662389F461B354
S1130470282F30E02851304041E050E0CA0102C04A
S1130480880F991F2A95E2F78095862381BB0895EA
S113049061B3282F30E02851304041E050E0CA01D8
S11304A002C0880F991F2A95E2F7862B81BB089515
S11304B08EE161E00E94C4018FE161E00E94C40109
S11304C08AE161E00E94C4018BE161E00E94C40101
S11304D008958EE161E00E94E9008FE160E00E94EE
S11304E0E9008AE161E00E94E9008BE160E00E949A
S11304F0E90008958EE160E00E94E9008FE161E087
S11305000E94E9008AE160E00E94E9008BE161E079
S11305100E94E90008958EE161E00E94E9008FE104
S113052060E00E94E9008AE160E00E94E9008BE15A
S113053061E00E94E90008958EE160E00E94E90014
S11305408FE161E00E94E9008AE161E00E94E90034
S11305508BE160E00E94E90008958EE160E00E9472
S1130560E9008FE160E00E94E9008AE160E00E9416
S1130570E9008BE160E00E94E90008950E94E7022F
S113058080916100813039F483B7806183BF83B780
S1130590806283BF0895882331F483B78F7E83BF3D
S11305A083B7806283BF0895482F50E021E03FEF76
S11305B0429FC001439F900D529F900D1124845679
S11305C09C4964E670E00E94BB036CBF08951CBEA6
S11305D013BE12BE80916200882369F483B78F7BB7
S11305E083BF83B7877F83BF83B78F7E83BF83B780
S11305F08F7D83BF26C0813039F483B7806483BF85
S113060083B7877F83BF1DC0823069F483B78F7B34
S113061083BF83B7886083BF83B7806183BF83B799
S11306208F7D83BF0EC0833061F483B7806483BF42
S113063083B7886083BF83B7806183BF83B78062D9
S113064083BF8091630090916400009751F483B755
S1130650816083BF83B78D7F83BF83B78B7F83BF65
S11306604FC08830910551F483B78E7F83BF83B721
S1130670826083BF83B78B7F83BF42C08034910580
S113068051F483B7816083BF83B7826083BF83B72C
S11306908B7F83BF35C021E08030920751F483B74C
S11306A08E7F83BF83B78D7F83BF83B7846083BF0F
S11306B027C024E08030920751F483B7816083BF60
S11306C083B78D7F83BF83B7846083BF19C08230B3
S11306D0910551F483B78E7F83BF83B7826083BF54
S11306E083B7846083BF0CC08330910549F483B71A
S11306F0816083BF83B7826083BF83B7846083BF15
S113070080916500813039F489B7826089BF8FB7E1
S113071080688FBF05C0882319F489B78D7F89BF8E
S113072080916600813039F489B7816089BF8FB7C1
S113073080688FBF0895882319F489B78E7F89BF95
S113074008951FBC1EBC1DBC1CBC1BBC1ABC19BC20
S113075018BC17BC16BC089512BE2DE72CBF009719
S113076049F028B721FFFDCF019728B7226028BFA1
S11307700097B9F7089597FB092E07260AD077FD4D
S113078004D00CD006D000201AF4709561957F4FE8
S11307900895F6F7909581959F4F0895AA1BBB1B6A
S11307A051E107C0AA1FBB1FA617B70710F0A61B6D
S11307B0B70B881F991F5A95A9F780959095BC018E
S10B07C0CD010895F894FFCF68
S10B07C8020101000100000020
S9030000FC
