S00B00004943552E7372656338
S11300000C942A000C9447000C9447000C9447006D
S11300100C9447000C9447000C9447000C94470040
S11300200C9447000C9447000C9447000C94470030
S11300300C9447000C9447000C9447000C94470020
S11300400C9447000C9447000C9447000C94470010
S11300500C94470011241FBECFE5D8E0DEBFCDBF0E
S113006010E0A0E6B0E0EAE4F9E002C005900D92E9
S1130070A636B107D9F710E0A6E6B0E001C01D929C
S1130080A836B107E1F70E94E4010C94A3040C9490
S113009000008830E8F4662371F44BB321E030E0CB
S11300A0B90102C0660F771F8A95E2F7CB018095EC
S11300B084238BBB08954BB321E030E0B90102C027
S11300C0660F771F8A95E2F7CB01842B8BBB0895CB
S11300D0982F9850983018F5662389F468B3282F20
S11300E030E02850304041E050E0CA0102C0880F9F
S11300F0991F2A95E2F78095862388BB089568B3F3
S1130100282F30E02850304041E050E0CA0102C0BE
S1130110880F991F2A95E2F7862B88BB0895982F9C
S11301209051983018F5662389F465B3282F30E090
S11301302051304041E050E0CA0102C0880F991FAD
S11301402A95E2F78095862385BB089565B3282F09
S113015030E02051304041E050E0CA0102C0880F35
S1130160991F2A95E2F7862B85BB0895982F9851FD
S1130170983010F5662389F462B3282F30E02851B3
S1130180304041E050E0CA0102C0880F991F2A950F
S1130190E2F78095862382BB089562B3282F30E06E
S11301A02851304041E050E0CA0102C0880F991F35
S11301B02A95E2F7862B82BB0895883058F429B338
S11301C030E0A90102C0559547958A95E2F7942F2E
S11301D0917038C0282F2850283078F446B350E066
S11301E0282F30E028503040CA0102C095958795E9
S11301F02A95E2F7982F917025C0282F2051283096
S113020078F443B350E0282F30E020513040CA0145
S113021002C0959587952A95E2F7982F917012C0A0
S1130220282F2851283070F440B350E0282F30E0B4
S113023028513040CA0102C0959587952A95E2F766
S1130240982F9170892F08958830E8F4662371F40B
S11302504AB321E030E0B90102C0660F771F8A95E6
S1130260E2F7CB01809584238ABB08954AB321E049
S113027030E0B90102C0660F771F8A95E2F7CB011F
S1130280842B8ABB0895982F9850983018F56623CC
S113029089F467B3282F30E02850304041E050E023
S11302A0CA0102C0880F991F2A95E2F78095862318
S11302B087BB089567B3282F30E02850304041E0D1
S11302C050E0CA0102C0880F991F2A95E2F7862BD5
S11302D087BB0895982F9051983018F5662389F4B8
S11302E064B3282F30E02051304041E050E0CA018F
S11302F002C0880F991F2A95E2F78095862384BB54
S1130300089564B3282F30E02051304041E050E09C
S1130310CA0102C0880F991F2A95E2F7862B84BB75
S11303200895982F9851983010F5662389F461B395
S1130330282F30E02851304041E050E0CA0102C08B
S1130340880F991F2A95E2F78095862381BB08952B
S113035061B3282F30E02851304041E050E0CA0119
S113036002C0880F991F2A95E2F7862B81BB089556
S113037080916700813021F48EB580648EBD05C004
S1130380882319F48EB58F7B8EBD809166008130F1
S113039039F48FB780688FBF89B7806289BF05C081
S11303A0882319F489B78F7D89BF1FBC1DBC1CBC71
S11303B017BC16BC8EB584608EBD8EB58D7F8EBD88
S11303C08EB581608EBD08958CE061E00E942401A9
S11303D080E161E00E94240181E161E00E94240146
S11303E082E161E00E9424010E94F1020E94FC0269
S11303F08E31910588F48CE061E00E94490080E12F
S113040060E00E94490081E161E00E94490082E1CC
S113041060E00E944900EACF8CE060E00E9449005D
S113042080E161E00E94490081E160E00E944900AE
S113043082E160E00E944900D9CF1CBE13BE12BE07
S113044080916000882369F483B78F7B83BF83B76F
S11304508F7D83BF83B7877F83BF83B78F7E83BF3F
S11304602CC0813069F483B7806483BF83B78F7DE8
S113047083BF83B7886083BF83B7806183BF1DC098
S1130480823069F483B78F7B83BF83B7806283BF75
S113049083B7886083BF83B78F7E83BF0EC08330EA
S11304A061F483B7806483BF83B7806283BF83B7FB
S11304B0886083BF83B7806183BF8091610090911E
S11304C06200009751F483B7816083BF83B78D7F47
S11304D083BF83B78B7F83BF4FC08830910551F4AE
S11304E083B78E7F83BF83B7826083BF83B78B7FDD
S11304F083BF42C08034910551F483B7816083BFC8
S113050083B7826083BF83B78B7F83BF35C021E00D
S11305108030920751F483B78E7F83BF83B78D7F7A
S113052083BF83B7846083BF27C024E080309207F1
S113053051F483B7816083BF83B78D7F83BF83B753
S1130540846083BF19C08230910551F483B78E7FD4
S113055083BF83B7826083BF83B7846083BF0CC0CB
S11305608330910549F483B7816083BF83B7826088
S113057083BF83B7846083BF80916300813021F49B
S113058089B7826089BF05C0882319F489B78D7F34
S113059089BF80916400813021F489B7816089BF6B
S11305A00895882319F489B78E7F89BF08951FBCE5
S11305B01EBC1DBC1CBC1BBC1ABC19BC18BC17BC83
S11305C016BC089512BE2DE72CBF009749F028B73A
S11305D021FFFDCF019728B7226028BF0097B9F704
S11305E008950E94B80188E061E00E9424018EE130
S11305F060E00E94240108950F931F93CF93DF932B
S113060088E061E00E9449001DBC1CBC17BC16BCFC
S113061083E08A95F1F7000088E060E00E944900D9
S11306208EB580648EBD8EB580648EBD88B785FF1F
S1130630FACFC6B527B5922F80E0D0E0C82BD92BCE
S113064088B7806288BF8EB58F7B8EBD88B785FDE5
S113065006C08EB58F7B8EBD88B785FFFACF06B5F1
S113066017B588B7806288BF8EE060E00E944900B9
S11306708DE061E00E9449001DBC1CBC17BC16BC87
S1130680912F80E010E0802B912B8C1B9D0BBC01E3
S113069080E090E00E94B2032DEB37E346E059E39B
S11306A00E94180420E03CEF45E057E40E9418043F
S11306B020E030E040E05FE30E9418040E948603DB
S11306C0862F972FDF91CF911F910F91089588E086
S11306D061E00E94490083E08A95F1F7000088E018
S11306E060E00E94490088B782958695877080FFF4
S11306F008C088B7806288BF8CE061E00E9449002E
S113070008958CE060E00E944900089570D088F05C
S11307109F5790F0B92F9927B751A0F0D1F0660FE9
S1130720771F881F991F1AF0BA95C9F712C0B13004
S113073081F077D0B1E0089574C0672F782F8827AF
S1130740B85F39F0B93FCCF3869577956795B39543
S1130750D9F73EF490958095709561957F4F8F4FB2
S11307609F4F0895E89409C097FB3EF490958095B7
S1130770709561957F4F8F4F9F4F9923A9F0F92F63
S113078096E9BB279395F695879577956795B795E1
S1130790F111F8CFFAF4BB0F11F460FF1BC06F5FC7
S11307A07F4F8F4F9F4F16C0882311F096E911C0D9
S11307B0772321F09EE8872F762F05C0662371F0FA
S11307C096E8862F70E060E02AF09A95660F771F0E
S11307D0881FDAF7880F9695879597F9089557FD3E
S11307E09058440F551F59F05F3F71F04795880F9B
S11307F097FB991F61F09F3F79F087950895121632
S113080013061406551FF2CF4695F1DF08C01616DD
S113081017061806991FF1CF86957105610508948E
S11308200895E894BB2766277727CB0197F90895A5
S11308300BD078C069D028F06ED018F0952309F059
S11308405AC05FC01124EECFCADFA0F3959FD1F345
S1130850950F50E0551F629FF001729FBB27F00D6A
S1130860B11D639FAA27F00DB11DAA1F649F6627BF
S1130870B00DA11D661F829F2227B00DA11D621F0E
S1130880739FB00DA11D621F839FA00D611D221FC8
S1130890749F3327A00D611D231F849F600D211DAC
S11308A0822F762F6A2F11249F5750408AF0E1F04F
S11308B088234AF0EE0FFF1FBB1F661F771F881F98
S11308C091505040A9F79E3F510570F014C0AACF33
S11308D05F3FECF3983EDCF3869577956795B79583
S11308E0F795E7959F5FC1F7FE2B880F911D9695AD
S11308F0879597F9089597F99F6780E870E060E01D
S113090008959FEF80EC089500240A9416161706A4
S113091018060906089500240A94121613061406EC
S113092005060895092E0394000C11F4882352F04F
S1130930BB0F40F4BF2B11F460FF04C06F5F7F4F07
S10D09408F4F9F4F0895F894FFCFE6
S109094A02400000000061
S9030000FC
